:020000040000fa
:080000000002040000000000f2
:020000040000fa
:100400000f802000807f2200000188000000000093
:10041000050007000c000700800202000000000039
:100420000040da000000fe004440a9000000200067
:100430000000e0000300320000002000a00188005e
:100440004440a80000000600604420000100200095
:100450001600370062004000e080480091018800eb
:100460009001ba0062004000e080480091018800dd
:100470009002ba0062004000e08048000002eb00f9
:100480006028e10005003a008301e900070033001d
:10049000038009000059eb00040037006128e100e7
:1004a000010032000082eb00050007009101880086
:1004b0001001ba000200e000e6ff3a00000005006b
:1004c000910188008002780062004000e0804800ce
:1004d0003559ba008301e900080032002559ba00f5
:1004e0008301e900050032000400e000f4ff32005f
:1004f00015d9ba008301e900f1ff3a0000000600b7
:100500000000fa008000eb00202d20009c00070076
:10051000402d2000f1ed2f00a1000700a0002000d9
:10052000cf000700fdff37000000fa00dea2a9009f
:10053000de82a80090012000c01188000000eb00be
:10054000801188000000eb009011880031e2a800c3
:100550003342a80087c0a9000080fa00000006000e
:100560000200fa00000f7800090037001e00780032
:10057000104078000000fb00a01188001e0fe8006a
:1005800033c2bf00624060000004e000f7ff3a00a1
:100590001e007800104078000004e000f8ff3a00e8
:1005a0000080fa00000006000200fa0087c0bf00c9
:1005b0000044b2000004e0000300320010002000fc
:1005c000000f7800020037000000eb00000f7800f9
:1005d0001e0078000080fa00000006000200fa0009
:1005e00087c0bf000044b2000004e000fcff3200fe
:1005f000b0118000004f780087c0a9001e00fb00ea
:100600000080fa00000006000600fa0010079800bb
:10061000210798001e009000000f7800efff0700f0
:10062000804078001e009000014878001e00900075
:1006300010407800e84f50000a003a001e00900079
:100640009e0f5000070036002e0090000000e800ca
:10065000200798001e0090000000e9001007980095
:100660000e0037001e00900010407800ea4f500046
:100670000a0032001e00900010407800ed4f50003c
:10068000090032001e0090000000e80010079800ea
:100690002e0090000000e900200798002e00900036
:1006a000e10f5000ddff3c009e0090000040eb0099
:1006b000804878001e0078000080fa0000000600e4
:1006c0000400fa00204798002e409000004f780068
:1006d00030c6b3009e4f1000070036001e80fb009e
:1006e00042062000110009000280d8000080fb00b3
:1006f0000003b0009aff07009e4178001e80fb00b7
:1007000042062000110009000280d8008080fb0012
:10071000400620000088b90000c05100004f78005a
:1007200090c0b3009e4f1000070036001e80fb00f3
:10073000a2002000110009000280d8000080fb0008
:100740000003b00086ff07009e4178001e80fb007a
:10075000a2002000110009000280d8000080fb00e8
:100760006a00b90000c05100004f78001e80fb00f5
:100770000003b0007aff07000080fa0000000600c6
:100780000400fa00000f7800110798009e00900006
:100790001e007800010878000080fa0000000600c2
:1007a0000400fa00000f7800110798009e009000e6
:1007b0001e007800010878000080fa0000000600a2
:1007c0000400fa00100798000000eb00000f78000a
:1007d0001e00900010007800000f78001e009000ae
:1007e0000080fa00000006000400fa0010079800dc
:1007f0001e009000601988000000eb0000198800be
:100800000000eb00801988002000200020198800db
:100810000000eb001019880021e3a8000080fa0016
:10082000000006000200fa00000f78001e007800a9
:10083000401988002023a800400620000800070077
:100840002003a80020c3bf00614060000004e00056
:10085000fcff3200001880000080fa000000060053
:100860000400fa00100798000000eb00000f780069
:10087000010037001e0fe8001e0090009e0f1000c0
:0c088000fcff35000080fa0000000600bc
:020000040000fa
:020000040002f8
:04aff800befa00009d
:020000040000fa
:020000040002f8
:04affc007fbf000013
:020000040000fa
:1000080048040000480400004804000048040000b8
:1000180048040000480400004804000048040000a8
:100028004804000048040000480400004804000098
:100038004804000048040000480400004804000088
:020000040000fa
:020000040000fa
:04088c000000000068
:020000040000fa
:040890000000fe0066
:00000001FF
